S02900004B696E657469732D4D4B4C2D465446412D666C6173682D70726F6772616D2D6763632E68657873
S3151FFFFF0044FFFF1F91FFFF1F91FFFF1F91FFFF1F62
S3151FFFFF1000000000000000000000000000000000BD
S3151FFFFF2000000000000000000000000000000000AD
S3151FFFFF30000000000000000000000000000000009D
S3151FFFFF400000000000FFFF1F5DFFFF1FBE00000038
S3151FFFFF50000000000000000000000000024B181CFC
S3151FFFFF6085462DE100BEC04644FFFF1F00B5074B68
S3151FFFFF705B695A88198898811004084380210A06ED
S3151FFFFF8010431880000C588000BEFDE744FFFF1F7B
S3151FFFFF9008B50720FFF7EAFFC388828819041143B4
S3151FFFFFA00A69012253420B614B758021064B8A0159
S3151FFFFFB01A604288018813040B4301218B431A0CD5
S3151FFFFFC0038042807047C0460C3000F008B5802181
S3151FFFFFD0302303700170027853B2002BFBDA0178CE
S3151FFFFFE0CA0601D5092003E00278920602D508202A
S3151FFFFFF0FFF7BCFF03780A20DA07F9D408BD10B54F
S315200000000388041C9A0712D58188C0888822000498
S3152000001008434368D3054360FFF7D8FF60882188EB
S3152000002003040B4302229343190C2380618010BDE5
S31520000030F7B5041C478A038A628B008B3F04E68A45
S315200000401F431104A58A23880143300401912843C4
S31520000050D9062AD586083D1C002E1DD00198134AA4
S31520000060C31B954207D1595930200840202802D178
S315200000700C20FFF77BFFE088A288C02100041043F4
S31520000080CA042A43416842605B5982688360FFF74D
S315200000909DFF0435013EDFE762882788110410257D
S315200000A03943A9432180E9406180F7BD0C04000053
S315200000B0F7B5428A041C038A678B1004E58A184325
S315200000C0218BA68A238801903F0428040F433043BE
S315200000D09A0623D585083E1C019AD11B7318002D3C
S315200000E013D0E088A18880220004084391040B43A2
S315200000F042684360836880235A04826002CEC268C5
S31520000100C160FFF763FF013DE6E76688278835046F
S315200001103D43202085432A0C25806280F7BD70B59B
S31520000120041C418AE28A038A2588808A0E041104E7
S315200001301E430143E3896D0720D500291ED0351CB7
S315200001407618013B013E9D431E43B5420DD8E088FB
S31520000150A18890221305000408432B43426843607C
S31520000160FFF734FFE1896D18EFE7608826880104E0
S315200001703143042291430B0C2180638070BD38B536
S31520000180418A038A0904C48A828A1943438824043B
S31520000190058814431A042A43130710D50334A308E9
S315200001A0002B07D010C9013402D00620FFF7DEFE4F
S315200001B0013BF5E708218A43150C0280458038BDAE
S315200001C038B50E4A0E4B0F480F4900251A600560B8
S315200001D04C69201CFFF7E0FE201CFFF710FF201CB7
S315200001E0FFF79DFF201CFFF7CAFF201CFFF720FF0B
S315200001F0201CFFF75DFF281CFFF7B8FE00FFFF1F3E
S3152000020008ED00E00081044044FFFF1F7047000016
S7052000020DCB
