S02500004B696E657469732D4654464C2D666C6173682D70726F6772616D2D6763632E6865787D
S31520000000E4000020810300208103002081030020DA
S3152000001081030020810300208103002000000000CE
S3152000002000000000000000000000000000000000AA
S31520000030000000000000000000000000000000009A
S31520000040000000000000000000000000000000008A
S31520000050000000000000000000000000000000007A
S31520000060000000000000000000000000000000006A
S31520000070000000000000000000000000000000005A
S31520000080000000000000000000000000000000004A
S31520000090000000000000000000000000000000003A
S315200000A0000000000000000000000000000000002A
S315200000B0000000000000000000000000000000001A
S315200000C0000000000000000000000000000000000A
S315200000D000000000000000000000000000000000FA
S315200000E00000000000000020FD000020BE000000EF
S315200000F0000000000000000000000000024B18462F
S31520000100854600F00DB900BEE4000020044B596975
S315200001100A68888142F00040086000BEFDE700BF03
S31520000120E400002043681A694FF0FF321A615A75BD
S31520000130044B002119605960026822F00101016018
S31520000140704700BF04F0014008B5802130230370BA
S31520000150017002781206FCD5037803F01001CAB2AA
S315200001600AB1092005E0037803F02001CAB212B1D2
S315200001700820FFF7CBFF0078C30701D50A20F8E750
S3152000018008BDB0F1805F28BF40F4000020F07F401A
S31520000190704710B504460069FFF7F3FF23689907F7
S315200001A00BD5616840F000604A6848600846FFF752
S315200001B0CBFF226822F00203236010BD2DE9F04117
S315200001C004460069FFF7DDFF2368D4F818806769C5
S315200001D0DB06064628D5B00702D1BF0835460FE014
S315200001E002201BE0606845F0C062C6EB0803416848
S315200001F042605A5981688260FFF7A6FF0435013FA5
S3152000020077B140F20C429542ECD1C6EB0803D3F805
S315200002100C0400F030012029E4D10C20FFF776FFF2
S31520000220206820F010012160BDE8F0812DE9F04121
S3152000023004460069FFF7A5FF2368D4F8188066698D
S315200002409A06074619D5B608054696B1606845F060
S315200002500072416842604FF08073C7EB08018268E4
S3152000026083604A59C168C260FFF76EFF0435013EBC
S31520000270EBE7206820F020012160BDE8F08170B511
S3152000028004460069FFF77DFF21686269E389490713
S3152000029016D5AAB15E1E013A20EA060510180643B5
S315200002A0B54209D8606845F0106342684360FFF79D
S315200002B04BFFE289AD18F3E7236823F004012160A0
S315200002C070BD38B5026804694169130712D5CB1C85
S315200002D0990800238B420AD0013304EB830555F895
S315200002E0045CB5F1FF3FF5D00620FFF70FFF22F0A3
S315200002F00802026038BD10B50446406823681A0615
S315200003000CD54FF0004143684160A3688268836042
S31520000310FFF71AFF206820F08002226010BD00003F
S3152000032010B5134B134A14481A604CF2205112236D
S31520000330124A01804DF62814048020F80E3C546998
S315200003402046FFF7EFFE2046FFF723FF2046FFF764
S31520000350D2FF2046FFF793FF2046FFF7B2FF204645
S31520000360FFF72CFF2046FFF761FF0020FFF7CEFEA8
S3152000037008ED00E0000000200E200540E4000020EB
S3112000038008B50720FFF7C2FE70470000FA
S705200003894E
