S02800004B696E657469732D465446452D4B452D666C6173682D70726F6772616D2D6763632E686578C4
S31520000000E4000020310100203101002031010020D0
S3152000001031010020310100203101002000000000C4
S3152000002000000000000000000000000000000000AA
S31520000030000000000000000000000000000000009A
S31520000040000000000000000000000000000000008A
S31520000050000000000000000000000000000000007A
S31520000060000000000000000000000000000000006A
S31520000070000000000000000000000000000000005A
S31520000080000000000000000000000000000000004A
S31520000090000000000000000000000000000000003A
S315200000A0000000000000000000000000000000002A
S315200000B0000000000000000000000000000000001A
S315200000C0000000000000000000000000000000000A
S315200000D000000000000000000000000000000000FA
S315200000E00000000000000020FD000020BE000000EF
S315200000F0000000000000000000000000024B181C59
S31520000100854683E100BEC046E400002000B5074BCB
S315200001105B695A88198898811004084380210A0649
S3152000012010431880000C588000BEFDE7E400002034
S3152000013008B50720FFF7EAFF104A114B01211A6084
S31520000140104A4B4210491360A0220B6091010F4ABE
S315200001501160C288818812040A431169136153759C
S31520000160A0230B4A19021160438801881B040B4304
S3152000017001229343190C03804180704720C528D95A
S3152000018004200540082005400C200540002005409D
S315200001900C3000F008B580213023037001700278FE
S315200001A053B2002BFBDA0178CA0601D5092003E0F9
S315200001B00278920602D50820FFF7A8FF03780A20C6
S315200001C0DA07F9D408BD0000044B00B5984202D9DD
S315200001D080210A0410430002000A00BDFFFFFF0F22
S315200001E010B5041C038A408A00041843FFF7ECFF6D
S315200001F021888A0714D5E388A2881904114380220E
S31520000200130518434A684860081CFFF7C3FF618836
S3152000021020880B04034302229343180C238060801A
S3152000022010BD0000F7B5478A038A3F041F43041C0C
S31520000230381CFFF7C9FFE28A051CA08A1104668BC9
S315200002400143238B2088360401911E43C2062ED5F6
S3152000025002206B0713D01FE0E088A388E02100046A
S315200002601843CB042B43426843603268836882601C
S315200002707168C368C160FFF78DFF08360835019A9B
S31520000280D1198D420AD20A488542E5D132683021F9
S3152000029011402029E0D10C20FFF738FF67882588F8
S315200002A03B0410262B43B3432380F3406380F7BDE2
S315200002B00C040000F7B5468A038A36041E43041C44
S315200002C0301CFFF781FFE28A071C638BA08A11048A
S315200002D0258B0143228818042843009101903D1C58
S315200002E0920622D500998B199D4215D2E388A188C2
S315200002F01804802208439104294342684160836898
S3152000030080235A0482600199C268CB1B595904354F
S31520000310C160FFF73FFFE5E76688278835043D4340
S31520000320202085432A0C25806280F7BD70B5041CE9
S31520000330038A408A00041843FFF746FFE28AA18A0F
S31520000340258816040E43E3896D071FD5002E1DD080
S31520000350013B051C86199D431E43B5420DD2E088FC
S31520000360A18890221305000408432B43426843606A
S31520000370FFF710FFE1896D18EFE7618820880E04EA
S31520000380064304229643330C2680638070BD38B51D
S31520000390418A038A0904C58A828A194343882D041F
S315200003A0048815431A04224313070ED50B1C6C1818
S315200003B0A34205D210CB0134F9D00620FFF7A6FEC2
S315200003C008218A43150C0280458038BD10B5041CCF
S315200003D08388C0882188000418430A0614D5802201
S315200003E04368130643606289218913040B4382689C
S315200003F08360FFF7CFFE618820880B0403438022A9
S315200004009343180C2380608010BD000010B50E4B5E
S315200004100E4A0F481A604469201CFFF78DFE201CE7
S31520000420FFF7DEFE201CFFF7D1FF201CFFF77EFF23
S31520000430201CFFF7ACFF201CFFF7F4FE201CFFF763
S3152000044039FF0020FFF762FE08ED00E000000020E3
S30D20000450E400002070470000C3
S7052000045581
