S02900004B696E657469732D465446412D4D4B4C2D666C6173682D70726F6772616D2D6763632E68657873
S3151FFFFF0044FFFF1F91FFFF1F91FFFF1F91FFFF1F62
S3151FFFFF1000000000000000000000000000000000BD
S3151FFFFF2000000000000000000000000000000000AD
S3151FFFFF30000000000000000000000000000000009D
S3151FFFFF400000000000FFFF1F5DFFFF1FBE00000038
S3151FFFFF50000000000000000000000000024B181CFC
S3151FFFFF60854629E100BEC04644FFFF1F00B5074B6C
S3151FFFFF705B695A88198898811004084380210A06ED
S3151FFFFF8010431880000C588000BEFDE744FFFF1F7B
S3151FFFFF9008B50720FFF7EAFFC388828819041143B4
S3151FFFFFA00A69012253420B614B75A021064B0A02B8
S3151FFFFFB01A604288018813040B4301218B431A0CD5
S3151FFFFFC0038042807047C0460C3000F008B5802181
S3151FFFFFD0302303700170027853B2002BFBDA0178CE
S3151FFFFFE0CA0601D5092003E00278920602D508202A
S3151FFFFFF0FFF7BCFF03780A20DA07F9D408BD10B54F
S315200000000388041C9A0712D58188C0888822000498
S3152000001008434368D3054360FFF7D8FF60882188EB
S3152000002003040B4302229343190C2380618010BDE5
S31520000030F7B5041C468A038AE28A808A3604678BCF
S315200000401E43258B1104238801433F042F4301912E
S31520000050351CD90628D50198821995421BD21348FA
S31520000060BB1B854207D1595930220A40202A02D18A
S315200000700C20FFF77BFFE088A288C02100041043F4
S31520000080CA042A43416842605B5982688360FFF74D
S315200000909DFF0435DFE7618826880D041027354348
S315200000A0BD432580FD406580F7BDC0460C04000099
S315200000B0F7B5041C468A038AE28A808A3604678B4F
S315200000C01E43258B1104238801433F042F430191AE
S315200000D0351C9A0621D501988219954214D2E088BA
S315200000E0A2888021000410438B0442682B4380227F
S315200000F04360510483688160BB1B5959C268C16043
S31520000100FFF764FF0435E6E7618826880D0435434A
S315200001102027BD432B0C25806380F7BD70B5041CBA
S31520000120428A018AE38A1604808A25880E431904A6
S315200001300143E2896D071FD500291DD0013A351CE0
S315200001408E1995431643B5420DD2E088A388902197
S31520000150000418430B052B4342684360FFF736FF24
S31520000160E289AD18EFE7608826880304334304212B
S315200001708B431A0C2380628070BD38B5418A038A6E
S315200001800904C58A828A194343882D0404881543A5
S315200001901A04224313070ED50B1C6C18A34205D252
S315200001A010CB0134F9D00620FFF7E0FE08218A4360
S315200001B0150C0280458038BD38B50E4A0E4B0F48C7
S315200001C00F4900251A6005604C69201CFFF7E4FEE4
S315200001D0201CFFF714FF201CFFF7A0FF201CFFF7B1
S315200001E0CCFF201CFFF724FF201CFFF761FF281CF3
S315200001F0FFF7BCFE00FFFF1F08ED00E00081044072
S30D2000020044FFFF1F70470000B8
S70520000205D3
