S02600004B696E657469732D46544D52452D666C6173682D70726F6772616D2D6763632E6865782A
S3151FFFFF0048FFFF1F95FFFF1F95FFFF1F95FFFF1F52
S3151FFFFF1000000000000000000000000000000000BD
S3151FFFFF2000000000000000000000000000000000AD
S3151FFFFF30000000000000000000000000000000009D
S3151FFFFF40000000000000000000FFFF1F61FFFF1FF2
S3151FFFFF50BE000000000000000000000000000000BF
S3151FFFFF60024B181C854651E100BEC04648FFFF1FC6
S3151FFFFF7000B5074B5B695A88198898811004084397
S3151FFFFF8080210A0610431880000C588000BEFDE72B
S3151FFFFF9048FFFF1F08B50720FFF7EAFFC3888288C0
S3151FFFFFA019041143FF231722CA70CB72BC21064BBC
S3151FFFFFB00A021A604288018813040B4301218B43EF
S3151FFFFFC01A0C0380428070470C3000F008B580235F
S3151FFFFFD0437143794F22191C9143FAD008209A0681
S3151FFFFFE002D4D90602D50920FFF7C2FF08BD10B5F7
S3151FFFFFF0041C8388C088618A228A000418430B0465
S315200000001343228891071AD530210022417142706C
S3152000001009211A0C4172D1B201720122190A4270C9
S31520000020DBB2CAB242720372FFF7D0FF6188208822
S315200000300B04034302229343180C2380608010BDD7
S31520000040F7B5051CC4886F8A6E8B8388298B008A36
S315200000502A8824043F0436041C4307430E43D20651
S3152000006051D530236371E98AA88A0A04024393088A
S315200000709BB2581E81B20191002B3BD00023062053
S31520000080390C6370CAB26072380A2272C1B2012377
S31520000090FAB263706172227233680220190A6070A4
S315200000A0CAB2D8B20321627220721A0E61701B0C7A
S315200000B00199D8B262722072002901D1043613E068
S315200000C073680422180A6270C1B2DAB2052061721E
S315200000D0227260700198190E01381B0C6172DAB217
S315200000E081B2083622720191201CFFF76FFF083774
S315200000F0019BBEE76F882C883E0410222643964338
S315200001002E80D6406E80F7BDF8B5458B018B428A8E
S31520000110038A2D0412040D4341881A43C48A038896
S31520000120868A09042704194337438B0611D5131CE5
S31520000130BC18A34208D0AE1A1F789E5D0133B74281
S31520000140F7D00520FFF714FF202291430E0C0180E3
S315200001504680F8BDF8B5041C618A8388C588008A64
S315200001600F04E28A0743A68A20882D0411041D4322
S315200001703143E389460728D5002926D03E1C7F181F
S31520000180013B013F30229E431F436A71BE4213D872
S31520000190310C00200A226870CBB26A72320A2B72A6
S315200001A00120F3B2D1B268706972281C2B72FFF756
S315200001B00DFFE0893618E9E7678825883E042E4337
S315200001C004218E43330C26806380F8BD38B5418ADE
S315200001D0038A0904C58A828A194343882D04048820
S315200001E015431A04224313070ED50B1C6C18A34281
S315200001F005D210CB0134F9D00620FFF7B9FE08212D
S315200002008A43150C0280458038BD000010B5134A7C
S31520000210134B144814491A60144C42884180428872
S3152000022001234480202281888480437002701048F4
S315200002304469201CFFF7B2FE201CFFF7D8FE201CC5
S31520000240FFF788FF201CFFF7C1FF201CFFF7F8FEF1
S31520000250201CFFF759FF0020FFF78AFE00FFFF1F33
S3152000026008ED00E000200540C5200000D928000048
S30D2000027048FFFF1F7047000044
S7052000027563
