S02700004B696E657469732D46544D52482D656570726F6D2D70726F6772616D2D6763632E686578AC
S3151FFFFE00D8FEFF1FD9010020D9010020D9010020EC
S3151FFFFE1000000000000000000000000000000000BE
S3151FFFFE2000000000000000000000000000000000AE
S3151FFFFE30000000000000000000000000000000009E
S3151FFFFE40000000000000000000000000000000008E
S3151FFFFE50000000000000000000000000000000007E
S3151FFFFE60000000000000000000000000000000006E
S3151FFFFE70000000000000000000000000000000005E
S3151FFFFE80000000000000000000000000000000004E
S3151FFFFE90000000000000000000000000000000003E
S3151FFFFEA0000000000000000000000000000000002E
S3151FFFFEB0000000000000000000000000000000001E
S3151FFFFEC0000000000000000000000000000000000E
S3151FFFFED0000000000000000000FEFF1FF1FEFF1FD5
S3151FFFFEE0BE00000000000000000000000000000030
S3151FFFFEF0024B181C854631E100BEC046D8FEFF1FC8
S3151FFFFF0000B5074B5B695A88198898811004084307
S3151FFFFF1080210A0610431880000C588000BEFDE79B
S3151FFFFF20D8FEFF1FC388828801881B0400B51343B1
S3151FFFFF30C90711D5FF210F221A7019725972BC23D7
S3151FFFFF4006491A020A6043880288190411430122CF
S3151FFFFF5091430B0C0180438000BDC0460C3000F05F
S3151FFFFF6008B58023837183794F22191C9143FAD0D9
S3151FFFFF7008209A0602D4D90602D50920FFF7C0FF2B
S3151FFFFF8008BD10B5041C8388C088618A228A0004B5
S3151FFFFF9018430B0413432288910719D530210022DA
S3151FFFFFA081719BB28270092180228172C2720121E7
S3151FFFFFB01A0ADBB281708272C372FFF7D1FF6188A3
S3151FFFFFC020880B04034302229343180C238060806F
S3151FFFFFD010BDF7B5041C678A8388C588008AE28A25
S3151FFFFFE03F040743A18A2D04608B16041D43238BF1
S3151FFFFFF00E43228801041943009601913E1CD20627
S3152000000027D5009BD81986421AD2302200231120E8
S31520000010AA71310CAB70A872300ACAB20123C1B2E0
S315200000200198EA72AB70F2B20223A972EA72C11B7E
S31520000030AB708A5D281CEA72FFF792FF0136E0E773
S31520000040678825883E0410212E438E432680CE4085
S315200000506680F7BD70B5428A038A1204C48A458B2E
S315200000601A43818A068B038824042D040C433543C6
S31520000070990616D5131CA1188B4212D2A91A1E78DE
S31520000080595C01338E4202D00520FFF739FF4188A3
S315200000900688090431432026B1430180090C41809A
S315200000A0E9E770BDF8B5041C618A8388C588008A93
S315200000B00F04E28A0743A68A20882D0411041D43D3
S315200000C03143E389460728D5002926D03E1C7F18D0
S315200000D0013B013F30229E431F43AA71BE4213D2E9
S315200000E0310C00201222A870CBB2AA72320AEB720F
S315200000F00120F3B2D1B2A870A972281CEB72FFF7C7
S315200001002FFFE0893618E9E7678825883E042E43C5
S3152000011004218E43330C26806380F8BD38B5418A8E
S31520000120038A0904C58A828A194343882D040488D0
S3152000013015431A04224313070FD50B1C6C18A34230
S3152000014006D21C780133FF2CF8D00620FFF7D8FE04
S3152000015008218A430280120C428038BD38B5184ADD
S31520000160184B194819491A60194C4288418042880F
S3152000017001234480202281888480437002701548A0
S315200001800025446963882188180408434200510CDD
S3152000019061802080A581201CFFF7C4FE201CFFF76C
S315200001A0F0FE201CFFF77EFF201CFFF7B7FF201C68
S315200001B0FFF70FFF201CFFF74DFF281CFFF7A0FEBF
S315200001C000FEFF1F08ED00E000200540C5200000CE
S315200001D0D9280000D8FEFF1F08B50720FFF790FE9C
S309200001E0704700003E
S705200001E1F8
