S02B00004B696E657469732D465446412D4D4B5631302D666C6173682D70726F6772616D2D6763632E68657806
S3151FFFFF0044FFFF1F91FFFF1F91FFFF1F91FFFF1F62
S3151FFFFF1000000000000000000000000000000000BD
S3151FFFFF2000000000000000000000000000000000AD
S3151FFFFF30000000000000000000000000000000009D
S3151FFFFF400000000000FFFF1F5DFFFF1FBE00000038
S3151FFFFF50000000000000000000000000024B181CFC
S3151FFFFF60854639E100BEC04644FFFF1F00B5074B5C
S3151FFFFF705B695A88198898811004084380210A06ED
S3151FFFFF8010431880000C588000BEFDE744FFFF1F7B
S3151FFFFF9008B50720FFF7EAFF0E4B0F4A0F491A80D6
S3151FFFFFA019800F4BD2221A80C288818813040B43F4
S3151FFFFFB001211A694A421A61A0230A4A19021160CE
S3151FFFFFC0438801881B040B4301229343190C0380AB
S3151FFFFFD0418070470E20054020C5FFFF28D9FFFF30
S3151FFFFFE0002005400C3000F008B580213023037038
S3151FFFFFF00170027853B2002BFBDA0178CA0601D5CE
S31520000000092003E00278920602D50820FFF7AEFF0A
S3152000001003780A20DA07F9D408BD10B50388041C32
S315200000209A0712D58188C08888220004084343682D
S31520000030D3054360FFF7D8FF6088218803040B436C
S3152000004002229343190C2380618010BDF7B5041C4E
S31520000050468A038AE28A808A3604678B1E43258B6A
S315200000601104238801433F042F430191351CD906EF
S3152000007028D50198821995421BD21348BB1B85426D
S3152000008007D1595930220A40202A02D10C20FFF7E5
S315200000906DFFE088A288C02100041043CA042A43C9
S315200000A0416842605B5982688360FFF79DFF043593
S315200000B0DFE7618826880D0410273543BD43258058
S315200000C0FD406580F7BDC0460C040000F7B5041C52
S315200000D0468A038AE28A808A3604678B1E43258BEA
S315200000E01104238801433F042F430191351C9A06AE
S315200000F021D501988219954214D2E088A2888021C0
S31520000100000410438B0442682B4380224360510431
S3152000011083688160BB1B5959C268C160FFF764FFC1
S315200001200435E6E7618826880D0435432027BD433C
S315200001302B0C25806380F7BD70B5041C418AE28AAA
S31520000140038A2588808A0E0411041E430143E3890D
S315200001506D0720D500291ED0351C7618013B013E9F
S315200001609D431E43B5420DD8E088A18890221305F1
S31520000170000408432B4342684360FFF735FFE189BB
S315200001806D18EFE7608826880104314304229143E5
S315200001900B0C2180638070BD38B5418A038A09041F
S315200001A0C58A828A194343882D04048815431A0474
S315200001B0224313070ED50B1C6C18A34205D210CB75
S315200001C00134F9D00620FFF7D1FE08218A43150C09
S315200001D00280458038BD000010B50D4B0D4A0E48F3
S315200001E01A604469201CFFF7D7FE201CFFF715FF75
S315200001F0201CFFF7A1FF201CFFF7CEFF201CFFF7D6
S3152000020025FF201CFFF762FF0020FFF7AFFEC04648
S3152000021008ED00E000FFFF1F44FFFF1F70470000AE
S7052000021DBB
