S02800004B696E657469732D465446412D4D4B2D666C6173682D70726F6772616D2D6763632E686578C0
S31520000000E4000020250100202501002025010020F4
S3152000001025010020250100202501002000000000E8
S3152000002000000000000000000000000000000000AA
S31520000030000000000000000000000000000000009A
S31520000040000000000000000000000000000000008A
S31520000050000000000000000000000000000000007A
S31520000060000000000000000000000000000000006A
S31520000070000000000000000000000000000000005A
S31520000080000000000000000000000000000000004A
S31520000090000000000000000000000000000000003A
S315200000A0000000000000000000000000000000002A
S315200000B0000000000000000000000000000000001A
S315200000C0000000000000000000000000000000000A
S315200000D000000000000000000000000000000000FA
S315200000E00000000000000020FD000020BE000000EF
S315200000F0000000000000000000000000024B18462F
S31520000100854600F0E9B800BEE4000020044B59699A
S315200001100A68888142F00040086000BEFDE700BF03
S31520000120E400002008B50720FFF7F0FF0C4B4CF247
S3152000013020521A804DF62811D222198023F80E2C2F
S3152000014043684FF0FF311A69064A19615975002331
S3152000015013605360016821F001030360704700BFFC
S315200001600E20054004F0014008B58021302303709D
S31520000170017002781206FCD5037803F01001CAB28A
S315200001800AB1092005E0037803F02001CAB212B1B2
S315200001900820FFF7BBFF0078C30701D50A20F8E740
S315200001A008BD10B50368990704460AD540684FF084
S315200001B0884143684160FFF7D7FF206820F002029C
S315200001C0226010BD2DE9F04103680669D0F814803D
S315200001D087690446D80623D5354608EB06008542AE
S315200001E01AD240F20C439D4209D1B81BD0F80C1408
S315200001F001F03002202A02D10C20FFF787FF606829
S3152000020045F0C063B91B426843604B5982688360DE
S31520000210FFF7AAFF0435E0E7216821F010022260EB
S31520000220BDE8F0812DE9F041036806694769D0F8F9
S3152000023018809B06044619D53546B819854211D231
S31520000240606845F00073426843604FF08071C6EBEA
S315200002500802836881605359C268C360FFF784FF30
S315200002600435EAE7216821F020022260BDE8F0810A
S3152000027070B5C3890269416904460068400715D5EF
S31520000280A1B15E1E22EA06058A181643B54209D296
S31520000290606845F0106142684160FFF765FFE089BC
S315200002A02D18F3E7216821F00403236070BD38B5CB
S315200002B002680169456913070DD50B466C18A342E0
S315200002C006D253F8044B0134F8D00620FFF71EFF60
S315200002D022F00802026038BD10B50D4B0D4A0E48BB
S315200002E01A6044692046FFF721FF2046FFF759FF91
S315200002F02046FFF7BDFF2046FFF7D9FF2046FFF730
S3152000030061FF2046FFF78EFF0020FFF7FFFE00BFAC
S3152000031008ED00E000000020E40000207047000007
S7052000031DBA
