S02900004B696E657469732D465446452D4D4B452D666C6173682D70726F6772616D2D6763632E68657876
S31520000000E4000020310100203101002031010020D0
S3152000001031010020310100203101002000000000C4
S3152000002000000000000000000000000000000000AA
S31520000030000000000000000000000000000000009A
S31520000040000000000000000000000000000000008A
S31520000050000000000000000000000000000000007A
S31520000060000000000000000000000000000000006A
S31520000070000000000000000000000000000000005A
S31520000080000000000000000000000000000000004A
S31520000090000000000000000000000000000000003A
S315200000A0000000000000000000000000000000002A
S315200000B0000000000000000000000000000000001A
S315200000C0000000000000000000000000000000000A
S315200000D000000000000000000000000000000000FA
S315200000E00000000000000020FD000020BE000000EF
S315200000F0000000000000000000000000024B181C59
S31520000100854683E100BEC046E400002000B5074BCB
S315200001105B695A88198898811004084380210A0649
S3152000012010431880000C588000BEFDE7E400002034
S3152000013008B50720FFF7EAFF104A114B01211A6084
S31520000140104A4B4210491360A0220B6091010F4ABE
S315200001501160C288818812040A431169136153759C
S31520000160A0230B4A19021160438801881B040B4304
S3152000017001229343190C03804180704720C528D95A
S3152000018004200540082005400C200540002005409D
S315200001900C3000F008B580213023037001700278FE
S315200001A053B2002BFBDA0178CA0601D5092003E0F9
S315200001B00278920602D50820FFF7A8FF03780A20C6
S315200001C0DA07F9D408BD0000044B00B5984202D9DD
S315200001D080210A0410430002000A00BDFFFFFF0F22
S315200001E010B5041C038A408A00041843FFF7ECFF6D
S315200001F021888A0714D5E388A2881904114380220E
S31520000200130518434A684860081CFFF7C3FF618836
S3152000021020880B04034302229343180C238060801A
S3152000022010BD0000F7B5041C038A408A0004184359
S31520000230FFF7CAFFE28AA18A668B071C1504238B67
S3152000024020880D43360401951E43C20630D57B0710
S3152000025001D13D1C14E002201FE0E088A388E021A4
S3152000026000041843CB042B434268436032688368FA
S3152000027082607168C368C160FFF78CFF0836083555
S3152000028001997A1895420AD20A488542E5D1326800
S31520000290302111402029E0D10C20FFF737FF658857
S315200002A027882B0410263B43B3432380F3406380E7
S315200002B0F7BDC0460C040000F7B5041C038A408A2B
S315200002C000041843FFF780FFE28AA18A678B061C89
S315200002D01504238B20880D433F0401951F43351CAD
S315200002E0820621D501997218954214D2E288A188F6
S315200002F010048023084399042943426841608022E0
S31520000300836853048360B91B4B59C268C360FFF7E7
S3152000031041FF0435E6E7658826882B0433432027EA
S31520000320BB43180C23806080F7BD70B5041C038A7C
S31520000330408A00041843FFF747FFE28AA18A2588EE
S3152000034016040E43E3896D0720D5002E1ED0711E9C
S31520000350013B051C0E189D431E43B5420DD8E0886F
S31520000360A18890221305000408432B43426843606A
S31520000370FFF710FFE1896D18EFE7628820881604E1
S31520000380064304239E43350C2680658070BD38B510
S31520000390418A038A0904C58A828A194343882D041F
S315200003A0048815431A04224313070ED50B1C6C1818
S315200003B0A34205D210CB0134F9D00620FFF7A6FEC2
S315200003C008218A43150C0280458038BD10B5041CCF
S315200003D08388C0882188000418430A0614D5802201
S315200003E04368130643606289218913040B4382689C
S315200003F08360FFF7CFFE618820880B0403438022A9
S315200004009343180C2380608010BD000010B50E4B5E
S315200004100E4A0F481A604469201CFFF78DFE201CE7
S31520000420FFF7DEFE201CFFF7D1FF201CFFF77DFF24
S31520000430201CFFF7ACFF201CFFF7F4FE201CFFF763
S315200004403BFF0020FFF762FE08ED00E000000020E1
S30D20000450E400002070470000C3
S7052000045581
