S02700004B696E657469732D46544D52482D656570726F6D2D70726F6772616D2D6763632E686578AC
S3151FFFFE00D8FEFF1FD5010020D5010020D5010020F8
S3151FFFFE1000000000000000000000000000000000BE
S3151FFFFE2000000000000000000000000000000000AE
S3151FFFFE30000000000000000000000000000000009E
S3151FFFFE40000000000000000000000000000000008E
S3151FFFFE50000000000000000000000000000000007E
S3151FFFFE60000000000000000000000000000000006E
S3151FFFFE70000000000000000000000000000000005E
S3151FFFFE80000000000000000000000000000000004E
S3151FFFFE90000000000000000000000000000000003E
S3151FFFFEA0000000000000000000000000000000002E
S3151FFFFEB0000000000000000000000000000000001E
S3151FFFFEC0000000000000000000000000000000000E
S3151FFFFED0000000000000000000FEFF1FF1FEFF1FD5
S3151FFFFEE0BE00000000000000000000000000000030
S3151FFFFEF0024B181C85462FE100BEC046D8FEFF1FCA
S3151FFFFF0000B5074B5B695A88198898811004084307
S3151FFFFF1080210A0610431880000C588000BEFDE79B
S3151FFFFF20D8FEFF1FC388828801881B0400B51343B1
S3151FFFFF30C90711D5FF210F221A7019725972BC23D7
S3151FFFFF4006491A020A6043880288190411430122CF
S3151FFFFF5091430B0C0180438000BDC0460C3000F05F
S3151FFFFF6008B58023837183794F22191C9143FAD0D9
S3151FFFFF7008209A0602D4D90602D50920FFF7C0FF2B
S3151FFFFF8008BD10B5041C8388C088618A228A0004B5
S3151FFFFF9018430B0413432288910719D530210022DA
S3151FFFFFA081719BB28270092180228172C2720121E7
S3151FFFFFB01A0ADBB281708272C372FFF7D1FF6188A3
S3151FFFFFC020880B04034302229343180C238060806F
S3151FFFFFD010BDF7B5041C678A8388C588008AE28A25
S3151FFFFFE03F04A18A2D040743608B16041D43238BF1
S3151FFFFFF00E4322880104194300960191D20628D584
S315200000003026AE713E1C009BD819864218D200239A
S315200000101120AB70310CA872300ACAB20123C1B2CA
S315200000200198EA72AB70F2B20223A972EA72C11B7E
S31520000030AB708A5D281CEA72FFF792FF0136E2E771
S315200000406788258839041022294391432180D1408D
S315200000506180F7BDF8B5428A038A1204C58A818A6F
S315200000601A4343882D04468B07880D43048B1904B5
S315200000703604394326438B0611D5131CAC18A342EC
S3152000008008D2B41A1F781C5D0133A742F6D005208A
S31520000090FFF736FF202291430E0C01804680F8BDE3
S315200000A0F8B5041C618A8388C588008A0F04E28A11
S315200000B00743A68A20882D0411041D433143E38972
S315200000C0460728D5002926D03E1C7F18013B013F34
S315200000D030229E431F43AA71BE4213D8310C002002
S315200000E01222A870CBB2AA72320AEB720120F3B2A6
S315200000F0D1B2A870A972281CEB72FFF731FFE089F4
S315200001003618E9E7678825883E042E4304218E4366
S31520000110330C26806380F8BD38B5418A038A0904EA
S31520000120C58A828A194343882D04048815431A04F4
S31520000130224313070FD50B1C6C18A34206D21C783A
S315200001400133FF2CF8D00620FFF7DAFE08218A4378
S315200001500280120C428038BD38B5184A184B19480F
S3152000016019491A60194C42884180428801234480EB
S3152000017020228188848043700270154800254469B6
S3152000018063882188180408434200510C618020802E
S31520000190A581201CFFF7C6FE201CFFF7F2FE201CBF
S315200001A0FFF77EFF201CFFF7B7FF201CFFF711FF8C
S315200001B0201CFFF74FFF281CFFF7A2FE00FEFF1FA3
S315200001C008ED00E000200540C5200000D9280000E9
S315200001D0D8FEFF1F08B50720FFF792FE70470000E4
S705200001DDFC
