S02600004B696E657469732D46544D52482D666C6173682D70726F6772616D2D6763632E68657827
S3151FFFFE00D8FEFF1F15020020150200201502002035
S3151FFFFE1000000000000000000000000000000000BE
S3151FFFFE2000000000000000000000000000000000AE
S3151FFFFE30000000000000000000000000000000009E
S3151FFFFE40000000000000000000000000000000008E
S3151FFFFE50000000000000000000000000000000007E
S3151FFFFE60000000000000000000000000000000006E
S3151FFFFE70000000000000000000000000000000005E
S3151FFFFE80000000000000000000000000000000004E
S3151FFFFE90000000000000000000000000000000003E
S3151FFFFEA0000000000000000000000000000000002E
S3151FFFFEB0000000000000000000000000000000001E
S3151FFFFEC0000000000000000000000000000000000E
S3151FFFFED0000000000000000000FEFF1FF1FEFF1FD5
S3151FFFFEE0BE00000000000000000000000000000030
S3151FFFFEF0024B181C85464FE100BEC046D8FEFF1FAA
S3151FFFFF0000B5074B5B695A88198898811004084307
S3151FFFFF1080210A0610431880000C588000BEFDE79B
S3151FFFFF20D8FEFF1FC388828801881B0400B51343B1
S3151FFFFF30C90711D5FF210F221A7019725972BC23D7
S3151FFFFF4006491A020A6043880288190411430122CF
S3151FFFFF5091430B0C0180438000BDC0460C3000F05F
S3151FFFFF6008B58023837183794F22191C9143FAD0D9
S3151FFFFF7008209A0602D4D90602D50920FFF7C0FF2B
S3151FFFFF8008BD38B5041C8388C088618A00041843DE
S3151FFFFF90228A23880D041543990719D52B0430226E
S3151FFFFFA08271190C0022092582701B0E8572C9B238
S3151FFFFFB0C272012282708372C172FFF7D1FF6588F9
S3151FFFFFC020882B04034302229343190C238061804D
S3151FFFFFD038BDF7B5051CC4888388028AEE8A408A16
S3151FFFFFE0A98A240437041C430304688B13430F4356
S3151FFFFFF02A8B298806041643C80649D5FF183022BF
S315200000000197A2710198834239D200270622180C43
S31520000010A770C1B2A2721A0AE172D0B20127D9B270
S31520000020A770A072E17232680220110AA070C8B2CD
S31520000030D1B2A072E1720320110EA070120CA1722F
S315200000400199D0B21F1DE0728F4201D3043611E010
S3152000005072681F1C100AC1B20423A370A172D3B206
S31520000060110E120CE3720520D3B2A0700836A172CD
S315200000700837E372201CFFF773FF3B1CC2E76B882F
S315200000802C881E04102126438E432E80CE406E805F
S31520000090F7BD70B5428A038A1204C48A458B1A4377
S315200000A0818A068B038824042D040C433543990644
S315200000B016D5131CA1188B4212D2A91A1E78595C88
S315200000C001338E4202D00520FFF71AFF41880688A9
S315200000D0090431432026B1430180090C4180E9E718
S315200000E070BDF8B5041C618A8388C588008A0F0410
S315200000F0E28A0743A68A20882D0411041D43314332
S31520000100E389460728D5002926D03E1C7F18013BC7
S31520000110013F30229E431F43AA71BE4213D8310CA1
S3152000012000200A22A870CBB2AA72320AEB720120F2
S31520000130F3B2D1B2A870A972281CEB72FFF710FF98
S31520000140E0893618E9E7678825883E042E4304218E
S315200001508E43330C26806380F8BD38B5418A038AE6
S315200001600904C58A828A194343882D0404881543C5
S315200001701A04224313070ED50B1C6C18A34205D272
S3152000018010CB0134F9D00620FFF7BAFE08218A43A6
S315200001900280120C428038BD38B5184A184B1948CF
S315200001A019491A60194C42884180428801234480AB
S315200001B02022818884804370027015480025446976
S315200001C063882188180408434200510C61802080EE
S315200001D0A581201CFFF7A6FE201CFFF7D2FE201CBF
S315200001E0FFF77FFF201CFFF7B8FF201CFFF7F1FE6B
S315200001F0201CFFF74EFF281CFFF782FE00FEFF1F84
S3152000020008ED00E000200540C5200000D9280000A8
S31520000210D8FEFF1F08B50720FFF772FE70470000C3
S7052000021DBB
