S02800004B696E657469732D4D4B2D465446412D666C6173682D70726F6772616D2D6763632E686578C0
S31520000000E4000020250100202501002025010020F4
S3152000001025010020250100202501002000000000E8
S3152000002000000000000000000000000000000000AA
S31520000030000000000000000000000000000000009A
S31520000040000000000000000000000000000000008A
S31520000050000000000000000000000000000000007A
S31520000060000000000000000000000000000000006A
S31520000070000000000000000000000000000000005A
S31520000080000000000000000000000000000000004A
S31520000090000000000000000000000000000000003A
S315200000A0000000000000000000000000000000002A
S315200000B0000000000000000000000000000000001A
S315200000C0000000000000000000000000000000000A
S315200000D000000000000000000000000000000000FA
S315200000E00000000000000020FD000020BE000000EF
S315200000F0000000000000000000000000024B18462F
S31520000100854600F0F1B800BEE4000020044B596992
S315200001100A68888142F00040086000BEFDE700BF03
S31520000120E400002008B50720FFF7F0FF0C4B4CF247
S3152000013020521A804DF62811D222198023F80E2C2F
S3152000014043684FF0FF311A69064A19615975002331
S3152000015013605360016821F001030360704700BFFC
S315200001600E20054004F0014008B58021302303709D
S31520000170017002781206FCD5037803F01001CAB28A
S315200001800AB1092005E0037803F02001CAB212B1B2
S315200001900820FFF7BBFF0078C30701D50A20F8E740
S315200001A008BD10B50368990704460AD540684FF084
S315200001B0884143684160FFF7D7FF206820F002029C
S315200001C0226010BD2DE9F04103680769D0F8188038
S315200001D046690446D80624D5B6083D46EEB140F217
S315200001E00C4295420AD1C7EB0803D3F80C0400F061
S315200001F03001202902D10C20FFF788FF606845F0E6
S31520000200C06342684360C7EB0802013E51598268C9
S315200002108160FFF7A9FF0435E0E7206820F0100190
S315200002202160BDE8F0812DE9F04103680769D0F827
S31520000230188046699B06044619D5B6083D4696B1F0
S31520000240606845F00073426843604FF08072C7EBE8
S315200002500801836882604B59C268C360FFF784FF38
S315200002600435013EEBE7206820F020012160BDE83F
S31520000270F08170B5C3890169426904460068400768
S3152000028017D5B2B1013B8E1821EA0305711E43EA48
S315200002900106B54209D8606845F01063426843609C
S315200002A0FFF762FFE1896D18F3E7226822F0040068
S315200002B0206070BD38B5026804694169130712D5FC
S315200002C0CB1C990800238B420AD0013304EB83050B
S315200002D055F8045CB5F1FF3FF5D00620FFF716FF71
S315200002E022F00802026038BD10B50D4B0D4A0E48AB
S315200002F01A6044692046FFF719FF2046FFF751FF91
S315200003002046FFF7B6FF2046FFF7D4FF2046FFF72B
S3152000031059FF2046FFF787FF0020FFF7F7FE00BFB3
S3152000032008ED00E000000020E400002070470000F7
S7052000032DAA
