S02000004C50432D434D302D666C6173682D70726F6772616D2D6763632E686578E6
S315100000009C040010024B181C854605E200BEC04633
S31510000010B805001000280ED0074B5B6959881A885E
S3151000002009041143802212060A431A80120C988181
S315100000305A8000BEFDE770479C040010074B14223F
S315100000405B6959889A811A8809041143802212061D
S315100000500A431A80120C5A8000BEFDE79C04001059
S31510000060438802881B0413430122934303801B0C0D
S315100000704380704700B5322387B001930290002366
S3151000008001A8039104930593011C0B4B9847019A01
S31510000090002A0ED0094B5B6959889A811A8809047F
S315100000A01143802212060A431A80120C5A8000BE8F
S315100000B0FDE707B000BDC046F11FFF1F9C040010EE
S315100000C000B5342387B001930290002301A8039151
S315100000D004920593011C0B4B9847019A002A0ED0E7
S315100000E0094B5B6959889A811A8809041143802241
S315100000F012060A431A80120C5A8000BEFDE707B09A
S3151000010000BDC046F11FFF1F9C04001010B586B03D
S315100001100290332401A80391049205930194011CC3
S315100001200A4B9847019A002A0ED0094B5B695988E9
S315100001309A811A8809041143802212060A431A80EA
S31510000140120C5A8000BEFDE706B010BDF11FFF1F4E
S315100001509C04001003889A070FD5084B01225B698F
S3151000016059889A811A8809041143802212060A4373
S315100001701A80120C5A8000BEFDE770479C040010CE
S31510000180F0B544465F464D465646F0B4478A038A54
S315100001903F04428B1F43038B1204C58A1A43838A7A
S315100001A02D041D434388904602881B04134387B0D1
S315100001B0041CDA0631D5002D2AD032239B462C4B4F
S315100001C00022924699463B0B5A460293039301A886
S315100001D05346019204930593011CC847019A002ABD
S315100001E022D0244B5B6959889A811A8809041143D5
S315100001F0802212060A431A80120C5A8000BEFDE7AE
S31510000200B044BF19AD1BDED1638822881B0413438B
S315100002101022934323801B0C638007B03CBC90468E
S315100002209946A246AB46F0BD80232E1C5B009D422C
S3151000023000D91E1C332301930F4B424601A803928B
S31510000240029704960593011CC847019A002AD7D035
S31510000250084B5B6959889A811A88090411438022D0
S3151000026012060A431A80120C5A8000BE00BEFCE722
S31510000270F11FFF1F9C040010E02E0000428A038A23
S315100002801204C18A1A43838A70B50904448B194330
S31510000290038B240445881C4303882D041D43AB0699
S315100002A015D589188A420DD213682668B3420FD124
S315100002B0043C131DA21A03E010CBD658B44207D142
S315100002C09942F9D820239D432B0C0580438070BD9D
S315100002D0074B0A225B6959889A811A8809041143C7
S315100002E0802212060A431A80120C5A8000BEFDE7BD
S315100002F09C040010F0B5428A038A12041A43C38A7A
S31510000300818A1B040B43018887B0041C480701D55A
S31510000310002B01D107B0F0BDD618013E3223170BC2
S31510000320019301A80023360B0297039604930593B5
S315100003301D4D011CA847019A002A0ED01B4B5B6964
S3151000034059889A811A8809041143802212060A4391
S315100003501A80120C5A8000BEFDE734230193144B09
S3151000036001A80592029703960493011CA847019AC7
S31510000370002A0FD00D4B5B6959889A811A88090497
S315100003801143802212060A431A80120C5A8000BEAC
S3151000039000BEFCE7638822881B04134304229343A0
S315100003A023801B0C6380B5E7F11FFF1F9C04001010
S315100003B0E02E0000438A028A1B041343C28A818AF4
S315100003C012040A43418810B50488090421430C0716
S315100003D01ED5D218934203D315E004339A4212D98C
S315100003E01C680134F9D00B4B08225B6959889A8135
S315100003F01A8809041143802212060A431A80120C25
S315100004005A8000BEFDE7082399430B0C01804380F8
S3151000041010BDC0469C04001070B572B61C4B022667
S315100004201C4D1E606C69638822881B041343191CBB
S31510000430012291432180090C61801E400DD06B6909
S3151000044059889A811A8809041143802212060A4390
S315100004501A80120C5A8000BEFDE7201CFFF74AFFD7
S31510000460201CFFF7A7FF201CFFF78AFE201CFFF7B2
S3151000047005FF6B6959881A880904114380221206F0
S315100004800A431A80120C9E815A8000BEFDE7C046B0
S31510000490008004409C040010C046FDE700000010D8
S315100004A005000010BE000000000000000000000063
S315100004B00000000000000000000000000000000026
S315100004C00000000000000000000000000000000016
S315100004D00000000000000000000000000000000006
S315100004E000000000000000000000000000000000F6
S315100004F000000000000000000000000000000000E6
S3151000050000000000000000000000000000000000D5
S3151000051000000000000000000000000000000000C5
S3151000052000000000000000000000000000000000B5
S3151000053000000000000000000000000000000000A5
S315100005400000000000000000000000000000000095
S315100005500000000000000000000000000000000085
S315100005600000000000000000000000000000000075
S315100005700000000000000000000000000000000065
S315100005800000000000000000000000000000000055
S315100005900000000000000000000000000000000045
S315100005A00000000000000000000000000000000035
S30D100005B000000000000000002D
S70510000419CD
