S02700004C504331315533785F32785F31782D666C6173682D70726F6772616D2D6763632E68657859
S31510000000A0040010550000105500001055000010F7
S31510000010550000105500001055000010024B181C1A
S31510000020854607E200BEC046B805001000280ED06F
S31510000030074B59694B880A881B0413438022120602
S3151000004013430B801B0C88814B8000BEFDE7704765
S31510000050A0040010074B596914238B814B880A881A
S315100000601B0413438022120613430B801B0C4B8078
S3151000007000BEFDE7A0040010438802881B0413434A
S315100000800122934303801B0C43807047322300B533
S3151000009087B001930023039101A90290049305935D
S315100000A008000B4B9847019B002B0ED0094A51694B
S315100000B08B814B880A881B04134380221206134334
S315100000C00B801B0C4B8000BEFDE707B000BDC04681
S315100000D0F11FFF1FA0040010342300B587B0019351
S315100000E00023039101A90290059304920B4B08007B
S315100000F09847019B002B0ED0094A51698B814B887A
S315100001000A881B0413438022120613430B801B0C10
S315100001104B8000BEFDE707B000BDC046F11FFF1FB4
S31510000120A004001010B5332486B0039101A90290E3
S31510000130059301940B4B049208009847019B002BE2
S315100001400ED0094A51698B814B880A881B041343C8
S315100001508022120613430B801B0C4B8000BEFDE75A
S3151000016006B010BDF11FFF1FA004001003889B07E7
S315100001700FD5084B596901238B814B880A881B04BC
S3151000018013438022120613430B801B0C4B8000BEB8
S31510000190FDE77047A0040010F0B544465F4656468A
S315100001A04D46F0B4038887B00400DB0606D407B0CA
S315100001B03CBC90469946A246AB46F0BD438A068A99
S315100001C01B041E43438B028B1B0413439846C38A9E
S315100001D0858A1B041D4332230193330B0293731933
S315100001E0013B1B0B0393002301A904930593284F8E
S315100001F00800B847019B002B0ED0264A51698B8107
S315100002004B880A881B0413438022120613430B8063
S315100002101B0C4B8000BEFDE7002D2ED080235B000B
S315100002209B46CD3B9A46B94602E0F619ED1B24D003
S315100002302F005D4501D980277F00638922891B0421
S31510000240134352460192424601A905930296039220
S3151000025004970800C847019B002BE6D00D4A516948
S315100002608B814B880A881B04134380221206134382
S315100002700B801B0C4B8000BEFDE7638822881B0495
S3151000028013431022934323801B0C63808FE7C046D1
S31510000290F11FFF1FA0040010438870B504881B04CB
S315100002A01C43A30621D5438A028A1B04C58A13431D
S315100002B0828A2D041543ED18AB4211D2428B018B65
S315100002C012040A4316681968B1420FD1043A191D6F
S315100002D0D31A03E004C95E58B24207D18D42F9D849
S315100002E020239C43230C0480438070BD074B59691F
S315100002F00A238B814B880A881B041343802212061B
S3151000030013430B801B0C4B8000BEFDE7A0040010AE
S31510000310F0B5038887B004005B0704D5C38A828AC8
S315100003201B04134301D107B0F0BD458A028A2D0480
S3151000033015432E0BED18322301930023013D01A91D
S315100003402D0B04930593029603951F4F0800B8478B
S31510000350019B002B0ED01D4A51698B814B880A8850
S315100003601B0413438022120613430B801B0C4B8075
S3151000037000BEFDE76289218912040A4334210191E6
S3151000038001A905930296039504920800B847019BAC
S31510000390002B0FD00D4A51698B814B880A881B049C
S315100003A013438022120613430B801B0C4B8000BE96
S315100003B000BEFCE7638822881B0413430422934380
S315100003C023801B0C6380AEE7F11FFF1FA0040010F3
S315100003D0438802881B041343190010B50B0726D552
S315100003E0438A028A1B041343C28A848A1204224354
S315100003F0D218934203D315E004339A4212D91C68DB
S315100004000134F9D00A4B596908238B814B880A8825
S315100004101B0413438022120613430B801B0C4B80C4
S3151000042000BEFDE7082399430B0C0180438010BDE5
S31510000430A004001070B572B60225164B16491D6041
S315100004404C690120638822881B0413431A008243D7
S315100004502280120C62801D420DD049694B880A8891
S315100004601B0413438022120613430B801B0C888136
S315100004704B8000BEFDE72000FFF74AFF2000FFF784
S31510000480A7FF2000FFF788FE2000FFF705FF00BE3C
S31510000490FDE7C04600800440A00400107047C04627
S315100004A0000000101D000010BE000000000000003B
S315100004B00000000000000000000000000000000026
S315100004C00000000000000000000000000000000016
S315100004D00000000000000000000000000000000006
S315100004E000000000000000000000000000000000F6
S315100004F000000000000000000000000000000000E6
S3151000050000000000000000000000000000000000D5
S3151000051000000000000000000000000000000000C5
S3151000052000000000000000000000000000000000B5
S3151000053000000000000000000000000000000000A5
S315100005400000000000000000000000000000000095
S315100005500000000000000000000000000000000085
S315100005600000000000000000000000000000000075
S315100005700000000000000000000000000000000065
S315100005800000000000000000000000000000000055
S315100005900000000000000000000000000000000045
S315100005A00000000000000000000000000000000035
S30D100005B000000000000000002D
S70510000435B1
