S0030000FC
S34520000000780500205905002059050020590500205905002059050020590500205905002000000000000000000000000000000000000000000000000000000000000000008B
S34520000040000000000000000000000000000000000000000000000000000000000000000000000000000000000000000000000000000000000000000000000000000000005A
S34520000080000000000000000000000000000000000000000000000000000000000000000000000000000000000000000000000000000000000000000000000000000000001A
S345200000C0000000000000000000000000000000000000000000000000000000000000000000000000000000000FB418B4DFF818004469029880B2A081206840F0004020604A
S3452000010000BE18BC04B070477805002010B5044642F21000C4F20200006800F08000002811D040F22311C4F2675142F20400C4F20200016048F6AB11CCF6EF5142F20400BA
S34520000140C4F20200016042F21000C4F20200006800F08000002804D121686FF0010008402060BDE81040704710B50446206800F48030002826D042F21000C4F20200006855
S3452000018000F40070002811D140F22311C4F2675142F20800C4F20200016048F6AB11CCF6EF5142F20800C4F20200016042F21000C4F20200006800F40070002802D101204D
S345200001C0FFF792FFBDE810407047000010B50446206800F00200002837D0042142F21000C4F202000160442142F21000C4F20200016042F20C00C4F20200006800F0010059
S345200002000028F6D1002142F21000C4F20200016042F20C00C4F20200006800F00400002802D00320FFF760FF42F20C00C4F20200006800F01000002802D00420FFF754FF9E
S3452000024021686FF0020008402060BDE810407047F8B504462669A5696069400887B2206800F01000002800F06E8006F00100002802D00220FFF738FF206800F480300028FA
S3452000028007D04FF4047142F21000C4F20200016049E0012142F21000C4F20200016042E02888308042F20C00C4F20200006800F001000028F6D142F20C00C4F20200006862
S345200002C000F00400002808D0002142F21000C4F2020001600320FFF707FF42F20C00C4F20200006800F01000002808D0002142F21000C4F2020001600420FFF7F5FE2068D4
S3452000030000F4803000280CD131882888814208D0002142F21000C4F2020001600520FFF7E3FEB61CAD1C38467F1EBFB20028B7D1002142F21000C4F20200016021686FF033
S34520000340100008402060BDE8F8407047F8B504462569A6696069400887B2206800F0200000281AD005F0010000280CD00220FFF7BBFE08E029883088814202D00520FFF797
S34520000380B3FEAD1CB61C38467F1EBFB20028F1D121686FF0200008402060BDE8F8407047F8B50446256960692818461EE089471E206800F00400002800F06E8060690028BE
S345200003C06AD0F84305403E43206800F48030002807D04FF4087142F21000C4F2020001604DE0022142F21000C4F20200016046E042F21400C4F202000560206800F48030F4
S34520000400002807D04FF4187142F21000C4F20200016005E0422142F21000C4F20200016042F20C00C4F20200006800F001000028F6D142F20C00C4F20200006800F0040035
S34520000440002808D0002142F21000C4F2020001600320FFF749FE42F20C00C4F20200006800F01000002808D0002142F21000C4F2020001600420FFF737FEE0892D18B542A6
S34520000480B6D9002142F21000C4F20200016021686FF0040008402060BDE8F8407047000070B5044625696069401C4608206800F00800002818D005F0010000280DD00220A4
S345200004C0FFF712FE09E029884FF6FF70814202D00620FFF709FE761EAD1C002EF3D121686FF0080008402060BDE870407047000010B5DFF85C104EF60850CEF200000160F2
S34520000500DFF85000446921686FF00040084020600020A0812046FFF7F9FD2046FFF756FE2046FFF721FE2046FFF73AFF2046FFF7B7FF2046FFF718FE2046FFF789FE2046B1
S34520000540FFF704FF0020FFF7CFFDBDE810407047000000207805002008B50720FFF7C4FDBDE8084070470000DFF808008546FFF7BFFF00BEE8000020000000206905002000
S315200005803E00000000000000000000000000000007
S705200005785D
